:100D0B0041001400410015004200980000440010FF
:100D1B000000000044009A000001F442001601F4A8
:100D2B004100A208C102C104C105C101C1034400B5
:070D3B000000000000C18070
:100D8600900007E5C3F0900006E5C4F0900005E585
:100D9600C5F0E4900004F0A3E0FDED5480FDED9075
:100DA60000046024E0FCA3E0FDA3E0FEA3E0FBAAB0
:100DB60006A905A804C3E49BFFE49EFEE49DFD741A
:100DC600019CFC1203B4800BE0FCA3E0FDA3E0FE53
:100DD600A3E0FF9000E41203FA9000E4E0FCA3E035
:0C0DE600FDA3E0FEA3E0FF78041203E68A
:010DF20022DE
:100FA000900007E5C3F0900006E5C4F0900005E569
:100FB000C5F0E4900004F0E0FCA3E0FDA3E0FEA394
:080FC000E0FF78041203D322C4
:060C05009000E41203FA66
:100C0B003000189000E4E0FCA3E0FDA3E0FEA3E0BD
:100C1B00FF9000001203FAC2008059900000E0F828
:100C2B00A3E0F9A3E0FAA3E0FBC000C001C002C03F
:100C3B00039000E4E0FCA3E0FDA3E0FEA3E0C39B74
:100C4B00FFEE9AFEED99FDEC98FCC0079000A2E038
:100C5B00FBE4FAF9F8D007120E5FD003D002D001F3
:100C6B00D000EB2FFFEA3EFEE93DFDE83CFC900097
:100C7B00001203FA900000E0FCA3E0FDA3E0FEA34A
:020C8B00E0FF88
:010C8D002244
:0D10C70075F38075F38130EDFD53E8DF22F5
:100FC80075F38075F38630EDFD53E8DF900007E593
:100FD800BAF0900006E5BBF0900005E5BCF0E4909F
:040FE8000004F022EF
:100FEC0075F38075F38730EDFD53E8DF900007E56E
:100FFC00ABF0900006E5ACF0900005E5ADF0E490A8
:04100C000004F022CA
:1008F50075F38075F38230EDFD53E8DF900007E571
:10090500C3F0900006E5C4F0900005E5C5F0E4905D
:100915000004F0A3E0FDED5480FDED90000460249B
:10092500E0FCA3E0FDA3E0FEA3E0FBAA06A905A861
:1009350004C3E49BFFE49EFEE49DFD74019CFC1250
:1009450003B4800BE0FCA3E0FDA3E0FEA3E0FF9071
:1009550000E91203FA9000E9E0FCA3E0FDA3E0FE44
:10096500A3E0FF78041203E69000E91203FA900071
:10097500E9E0FCA3E0FDA3E0FEA3E0FF9000081280
:1009850003FAE4FFFEFDFC900008E0F8A3E0F9A3FC
:10099500E0FAA3E0FBD31203C24005D2047F012293
:0409A500C2047F0009
:0109A900222B
:100DF30075F38075F38230EDFD53E8DF900007E56E
:100E0300C3F0900006E5C4F0900005E5C5F0E4905A
:100E13000004F0E0FCA3E0FDA3E0FEA3E0FF780400
:100E23001203D390000C1203FA900008E0FCA3E035
:100E3300FDA3E0FEA3E0FFA3E0F8A3E0F9A3E0FA3B
:100E4300A3E0FBD31203C2400AD20590001474013D
:0B0E5300F0FF22C205E4900014F0FF45
:010E5E002271
:10043700900014E07003020616900015E06009E4CE
:10044700F075F38075F3822230E902D20120ED03C3
:1004570002061653E8DF120D86C004C005C006C0A9
:1004670007900098E475F001120281FEE5F078022A
:10047700C333CE33CED8F92418F58274003EF58302
:10048700D007D006D005D0041203FA900098E07088
:1004970004A3E064206003020616900098F0A3F01E
:1004A7009000DE12040600000000E49000E2F0A3D2
:1004B700F09000DEE0F8A3E0F9A3E0FAA3E0FBC0C8
:1004C70000C001C002C003A3E0FEA3E07802C3336B
:1004D700CE33CED8F92418F58274003EF583E0FCBC
:1004E700A3E0FDA3E0FEA3E0D003D002D001D0003B
:1004F7002BFFEA3EFEE93DFDE83CFC9000DE1203DF
:10050700FA9000E3E004F070069000E2E004F09057
:1005170000E2E07004A3E064207096E47B20FAF91F
:10052700F89000DEE0FCA3E0FDA3E0FEA3E0FF12ED
:10053700032290009E1203FA30031790009EE0FCFE
:10054700A3E0FDA3E0FEA3E0FF120C0590009E12BE
:1005570003FA900008E0FCA3E0FDA3E0FEA3E0FFA0
:1005670090009EE0F8A3E0F9A3E0FAA3E0FBD31222
:1005770003C2501590001012040600000000E4901A
:1005870000D7F0A3F0A3F08072900008E0F8A3E092
:10059700F9A3E0FAA3E0FB90009EE0FCA3E0FDA333
:1005A700E0FEA3E0C39BFFEE9AFEED99FDEC98FCFD
:1005B70090009AE0F8A3E0F9A3E0FAA3E0FB1202A7
:1005C70097C004C005C006900008E0F8A3E0F9A3AF
:1005D700E0FAA3E0FBA3E0FCA3E0FDA3E0FEA3E0B9
:1005E700C39BFBEE9AFAED99F9EC98F8D006D00583
:1005F700D0041203229000101203FA900010E0FCBE
:0F060700A3E0FDA3E0FEA3E0FF9000D11203FAF1
:0106160022C1
:100F4A0075B280E4F5A975B283F5BE43BE80FFFE93
:100F5A000FBF00010EEF64C84E70F543BEC0E5BE78
:0C0F6A0030E5FB75FF8075EF06E4F5A98B
:010F76002258
:0D10D40075A458E4F5A575E10175E2402210
:10000300EF600575F417800375F40743D101E4F538
:10001300FB75F71375C610759A14F59B75F380225B
:1010B500E4F5C8F58E75CBF875CA0743C80443A88F
:0210C5002022E7
:1010600075981053890F438920438E08758D9675A6
:071070008B96D28ED2AC2258
:1010A200AD07120F4A1210D41210B5AF0512000389
:0310B200021060C9
:0D10E1003F065B4F666D7C077F6F8000400F
:0E0D4200C108C106C1074100CC004100DD021E
:10108D009000CD1204060000FFFF9000D11204065F
:05109D0000000000222C
:10061700200B030207A02008030206EA2002079026
:1006270000D7740A800B900014E0700D9000D77407
:100637000CF0A3F0A3F00207359000CDA3A3E0FED2
:10064700A3E0FBAA06A3A3A3E0FEA3E0C39BFFEEE0
:100657009AFE1210EE9000DDE0FDD3EF9D7480F856
:100667006E9850030207359000D1E0FCA3E0FDA38C
:10067700E0FEA3E0FF9000CD1203FAE47B0AFAF94B
:10068700F89000CDE0FCA3E0FDA3E0FEA3E0FF129D
:1006970003229000D7EBF0E47B0AFAF9F89000CD3B
:1006A700E0FCA3E0FDA3E0FEA3E0FF120322E47B4E
:1006B7000AFAF9F81203229000D8EBF0E47B64FA07
:1006C700F9F89000CDE0FCA3E0FDA3E0FEA3E0FF76
:1006D700120322E47B0AFAF9F81203229000D9EBFD
:1006E700F0804B3006489000B7E0FF9000D6F090BE
:1006F70000D5E0C39FD394004034A3E09000D5F029
:1007070075F00A849000D7E5F0F09000D5E075F019
:100717000A8475F00A849000D8E5F0F09000D5E0DF
:1007270075F0648475F00A849000D9E5F0F0E4F57B
:1007370090D280D281D2879000CCE0C3940250053A
:10074700E004F08005E49000CCF09000CCE024D7E2
:10075700300710F582E43400F583E09010E193440C
:1007670080800CF582E43400F583E09010E193F487
:10077700F5909000CCE0FF7008C280D281D28780CC
:1007870016EFB40108D280C281D287800AEFB40283
:0A07970006D280D281C287C20B2275
:100D50004200A400004100B7004100B3004100A9D7
:100D6000644200A603E84200B4EA604100B602C152
:090D70000B4100A30A4100A80A8E
:03002B00020AECDA
:100AEC00C0E0C083C082C0D0C2CF9000B6E060042A
:100AFC0014F080089000B67402F0D20B9000A8E0BD
:100B0C00600414F0800E9000A3E09000A8F0900018
:100B1C00157401F09000A9E0600414F0800E9000B0
:100B2C00A97464F09000B3E0600214F09000A6E0A9
:100B3C007002A3E060109000A7E024FFF09000A6E4
:100B4C00E034FFF0801F9000A67403F0A374E8F06B
:100B5C009000B7E0600F9000F0E0B401089000B78F
:0E0B6C00E014F0B207D0D0D082D083D0E032B7
:03002300020B7A53
:100B7A00C0E0C083C082C0D075D000C005C006C026
:100B8A0007309861200A5E9000A4E0FEA3E0FFFD12
:100B9A0024AAF582E43400F583E599F0EF64014E66
:100BAA00702074AA2DF582E43400F583E0FF9000EA
:100BBA00CAE0FEEF6E600B9000A4E4F0A3F0C298C6
:100BCA00802A9000A5E004F070069000A4E004F0EA
:100BDA00C39000A5E094099000A4E094004006D2D6
:100BEA000AE4F0A3F0C298309902C299D007D0065D
:0B0BFA00D005D0D0D082D083D0E032F4
:020D7900C10CAB
:100C8E007F011210A21210FA9000CAEFF012108D0E
:100C9E009000D7740CF0A3F0A3F0E49000F0F012E3
:100CAE0010C77F647E00121010D20290000812044A
:100CBE00060000000090000C1204060000000090D8
:100CCE00009E1204060000000090001012040600A0
:100CDE00000000C286D283D208C206D2AF300C0FFB
:100CEE0020020C1210C77F647E00121010D2021266
:0D0CFE000617120437120EA3120F1C80E01F
:10104600C2AFEF1FAC0670011E4C600B0000000023
:0A105600000000000080EBD2AF2282
:04101000AB07AA067A
:10101400900001D3E5829BE5839A500A7FE87E0322
:06102400121046A380ED4E
:01102A0022A3
:10102B00C2AF8F999000B37402F0E59820E106905F
:0B103B0000B3E070F55398FDD2AF2227
:0910FA002082037F34227F33229F
:100EE100C20DAD07C2AFC2837F077E00121046E478
:100EF100FBED30E004D20D8002C20DEDC313FDA263
:100F01000D92837F077E001210460BEBB408E2D2EC
:0A0F1100837F147E00121046D2AF59
:010F1B0022B3
:040D7B00C10AC109DF
:0609AA009000E91203FABF
:1009B0009000C17421F09000CAE09000C2F0900055
:1009C000CBE09000C3F09000E9E0FCA3A3A3E4FF18
:1009D000FEFDEC78181203D39000C4EFF09000E90C
:1009E000A3E0FDA3A3E4FFFEE4FC78101203D39080
:1009F00000C5EFF09000E9A3A3E0FEA3E4FFE4FD4F
:100A0000FC78081203D39000C6EFF09000E9E0FCF8
:100A1000A3E0FDA3E0FEA3E0FF9000C7EFF0A37406
:100A20003BF01210779000C9EFF0D209D286C2AC29
:100A3000E49000EDF09000EDE0FFC39409501774CE
:100A4000C12FF582E43400F583E0FF12102B9000F3
:0C0A5000EDE004F080DFC209C286D2ACE9
:010A5C002277
:10107700E4FFFE74C12EF582E43400F583E06FFFD0
:051087000EEEB408EEBE
:01108C002241
:0B0F77009000E9EBF0A3EAF0A3E9F022
:100F8200E4FFFE9000E9E0FBA3E0FAA3E0F98E8221
:0D0F92007583001202546FFF0EEEB408E6E6
:010F9F00222F
:0B07A1009000DEE0FBA3E0FAA3E0F90B
:0B07AC009000E9EBF0A3EAF0A3E9F0F5
:1007B700A3120406000000009000ECE0F8A3E0F9A3
:1007C700A3E0FAA3E0FBC000C001C002C003900091
:1007D700E9E0FBA3E0FAA3E0F9900003120254FF5B
:1007E700E4FCFDFED003D002D001D000EB2FFFEEDA
:1007F7003AFEED39FDEC38FC9000EC1203FA90005C
:10080700E9E0FBA3E0FAA3E0F9900004120254FF29
:10081700E4FCFDFEC004C005C006C007FF0E900043
:10082700ECE0F8A3E0F9A3E0FAA3E0FB120297D00B
:1008370003D002D001D000EF2BFFEE3AFEED39FDD9
:10084700EC38FC9000EC1203FA9000E9E0FBA3E01F
:10085700FAA3E0F9900005120254FFE4FCFDFEC084
:1008670004C005C006C007FF0E9000ECE0F8A3E047
:10087700F9A3E0FAA3E0FB120297D003D002D0015C
:10088700D000EF2BFFEE3AFEED39FDEC38FC90007F
:10089700EC1203FA9000E9E0FBA3E0FAA3E0F99079
:1008A7000006120254FFE4FCFDFEC004C005C006AA
:1008B700C007FF0E9000ECE0F8A3E0F9A3E0FAA36D
:1008C700E0FB120297D003D002D001D000EF2BFF3C
:1008D700EE3AFEED39FDEC38FC9000EC1203FA908D
:0D08E70000ECE0FCA3E0FDA3E0FEA3E0FFB9
:0108F40022E1
:0B002E009000DEEBF0A3EAF0A3E9F085
:10003900A3120406000000009000E5120406000067
:1000490000009000DEE0FBA3E0FAA3E0F9900001D4
:10005900120254FF9000CAE06F60037F0022120F62
:10006900779000DEE0FBA3E0FAA3E0F99000081224
:1000790002546F60037F0222900002120254900022
:10008900CBF024CFB40D0040030202519000A375B8
:10009900F003A4C58325F0C583730200CD0200EDEA
:1000A9000200D20201020200DC0200D70202510260
:1000B900025102019202012E0200CA0202510202F9
:1000C9001602017A900010800D90009E8008900021
:1000D90008800390000CE0FCA3E0FDA3E0FEA3E090
:1000E900FF02024E1208F5EF60047F0180027F02D1
:1000F9007E007D007C0002024E20040B7F037E00FF
:100109007D007C0002024E1207A190009A1203FAA8
:10011900120DF3EF60047F0180027F027E007D00F3
:100129007C0002024E1207A19000E11203FAE4FFDB
:10013900FEFDFC9000E1E0F8A3E0F9A3E0FAA3E0FA
:10014900FBD31203C24035E4FFFE7D10FC9000E1B1
:10015900E0F8A3A3A3E01203C250219000E1E0FC60
:10016900A3E0FDA3E0FEA3E0FF9000081203FAD28A
:10017900047F017E007D007C0002024EC2047F02E2
:100189007E007D007C0002024E1207A19000E5125C
:1001990003FA20040FE4900014F0C2057F03FEFD6A
:1001A900FC02024E900008E0FCA3E0FDA3E0FEA3E0
:1001B900E0FF9000E5E0F8A3E0F9A3E0FAA3E0FB93
:1001C900D31203C24039E4FFFE7D10FC9000E5E044
:1001D900F8A3A3A3E01203C250259000E5E0FCA315
:1001E900E0FDA3E0FEA3E0FF90000C1203FA9000EB
:1001F900147401F0D205FF7E007D007C008046E486
:10020900900014F0C2057F02FEFDFC80389000DEEC
:10021900E0FBA3E0FAA3E0F9900006120254FFD331
:10022900940040179000F0E070119000B7EFF0D201
:100239000E7F017E007D007C00800AC20E7F027E57
:0A024900007D007C001209AA7F016D
:010253002288
:100F1C00300A2AE4FF74AA2FF582E43400F583E04A
:100F2C00FE74B82FF582E43400F583EEF00FEFB4C5
:0D0F3C0009E37B017A0079B812002EC20A89
:010F49002285
:03000000020A5D94
:0F0A5D0053D9BF787FE4F6D8FD758121020AA72F
:060D7F00C10E4100F0006E
:100EA3009000F0E0FF700E300E0BC283D206C20832
:100EB300C20E04F022EFB401139000B7E0700DD21C
:100EC30083C206D2089000F07402F0229000F0E092
:0E0ED300B4020A9000B7E070049000F0F02224
:100A6C00020C8EE493A3F8E493A34003F68001F206
:100A7C0008DFF48029E493A3F85407240CC8C3338B
:100A8C00C4540F4420C8834004F456800146F6DF5A
:100A9C00E4800B0102040810204080900D0BE47ED2
:100AAC00019360BCA3FF543F30E509541FFEE4934F
:100ABC00A360010ECF54C025E060A840B8E493A316
:100ACC00FAE493A3F8E493A3C8C582C8CAC583CA41
:100ADC00F0A3C8C582C8CAC583CADFE9DEE780BEF9
:010D8500006D
:10025400BB010CE58229F582E5833AF583E022505F
:1002640006E92582F8E622BBFE06E92582F8E222A9
:0D027400E58229F582E5833AF583E49322C3
:10028100A3F8E0C5F025F0F0E58215827002158330
:06029100E0C838F0E8228D
:10029700E88FF0A4CC8BF0A42CFCE98EF0A42CFC06
:1002A7008AF0EDA42CFCEA8EF0A4CDA8F08BF0A484
:1002B7002DCC3825F0FDE98FF0A42CCD35F0FCEBE3
:1002C7008EF0A4FEA9F0EB8FF0A4CFC5F02ECD39A8
:0F02D700FEE43CFCEAA42DCE35F0FDE43CFC2215
:1002E60075F008758200EF2FFFEE33FECD33CDCCCF
:1002F60033CCC58233C5829BED9AEC99E582984052
:100306000CF582EE9BFEED9AFDEC99FC0FD5F0D62E
:10031600E4CEFBE4CDFAE4CCF9A88222B800C1B958
:100326000059BA002DEC8BF084CFCECDFCE5F0CB96
:10033600F97818EF2FFFEE33FEED33FDEC33FCEBCF
:1003460033FB10D703994004EB99FB0FD8E5E4F98A
:10035600FA227818EF2FFFEE33FEED33FDEC33FC77
:10036600C933C910D7059BE99A4007EC9BFCE99A6B
:10037600F90FD8E0E4C9FAE4CCFB2275F010EF2FB0
:10038600FFEE33FEED33FDCC33CCC833C810D707B0
:100396009BEC9AE899400AED9BFDEC9AFCE899F8EB
:0E03A6000FD5F0DAE4CDFBE4CCFAE4C8F9227E
:100E5F00C2D5E830E70FB2D5E4C39BFBE49AFAE4BE
:100E6F0099F9E498F8EC30E717B2D5120E95120302
:100E7F0022E4C39BFBE49AFAE499F9E498F880031F
:100E8F0012032230D50DE4C39FFFE49EFEE49DFDC7
:040E9F00E49CFC22B1
:0E03B400C3E49FFFE49EFEE49DFDE49CFC225A
:1003C200EB9FF5F0EA9E42F0E99D42F0E89C45F091
:0103D2002208
:1003D300E8600FECC313FCED13FDEE13FEEF13FF08
:0303E300D8F1222C
:1003E600E86010ECA2E713FCED13FDEE13FEEF132D
:0403F600FFD8F0221A
:0C03FA00ECF0A3EDF0A3EEF0A3EFF02276
:10040600A8828583F0D083D08212041D12041D12A7
:10041600041D12041DE473E493A3C583C5F0C583CC
:10042600C8C582C8F0A3C583C5F0C583C8C582C840
:0104360022A3
:0C10EE00EE30E707C3E49FFFE49EFE2203
:00000001FF
