:100CF100C102C10342009600004400100000000040
:100D0100440098000001F442001401F44100A008DD
:100D1100C104C106C107C101C105440000000000B2
:030D210000C1808E
:100D6800900007E5C3F0900006E5C4F0900005E5A3
:100D7800C5F0E4900004F0A3E0FDED5480FDED9093
:100D880000046024E0FCA3E0FDA3E0FEA3E0FBAACE
:100D980006A905A804C3E49BFFE49EFEE49DFD7438
:100DA800019CFC1203B1800BE0FCA3E0FDA3E0FE74
:100DB800A3E0FF9000E21203F79000E2E0FCA3E05A
:0C0DC800FDA3E0FEA3E0FF78041203E3AB
:010DD40022FC
:100F7D00900007E5C3F0900006E5C4F0900005E58C
:100F8D00C5F0E4900004F0E0FCA3E0FDA3E0FEA3B7
:080F9D00E0FF78041203D022EA
:060BEB009000E21203F786
:100BF1003000189000E2E0FCA3E0FDA3E0FEA3E0DA
:100C0100FF9000001203F7C2008059900000E0F845
:100C1100A3E0F9A3E0FAA3E0FBC000C001C002C059
:100C2100039000E2E0FCA3E0FDA3E0FEA3E0C39B90
:100C3100FFEE9AFEED99FDEC98FCC0079000A0E054
:100C4100FBE4FAF9F8D007120E3CD003D002D00130
:100C5100D000EB2FFFEA3EFEE93DFDE83CFC9000B1
:100C6100001203F7900000E0FCA3E0FDA3E0FEA367
:020C7100E0FFA2
:010C7300225E
:0D10A40075F38075F38130EDFD53E8DF2218
:100FA50075F38075F38630EDFD53E8DF900007E5B6
:100FB500BAF0900006E5BBF0900005E5BCF0E490C2
:040FC5000004F02212
:100FC90075F38075F38730EDFD53E8DF900007E591
:100FD900ABF0900006E5ACF0900005E5ADF0E490CB
:040FE9000004F022EE
:1008DF0075F38075F38230EDFD53E8DF900007E587
:1008EF00C3F0900006E5C4F0900005E5C5F0E49074
:1008FF000004F0A3E0FDED5480FDED9000046024B2
:10090F00E0FCA3E0FDA3E0FEA3E0FBAA06A905A877
:10091F0004C3E49BFFE49EFEE49DFD74019CFC1266
:10092F0003B1800BE0FCA3E0FDA3E0FEA3E0FF908A
:10093F0000E71203F79000E7E0FCA3E0FDA3E0FE61
:10094F00A3E0FF78041203E39000E71203F790008F
:10095F00E7E0FCA3E0FDA3E0FEA3E0FF9000081298
:10096F0003F7E4FFFEFDFC900008E0F8A3E0F9A315
:10097F00E0FAA3E0FBD31203BF4005D2067F0122AA
:04098F00C2067F001D
:010993002241
:100DD50075F38075F38230EDFD53E8DF900007E58C
:100DE500C3F0900006E5C4F0900005E5C5F0E49079
:100DF5000004F0E0FCA3E0FDA3E0FEA3E0FF78041F
:100E05001203D090000C1203F7900008E0FCA3E059
:100E1500FDA3E0FEA3E0FFA3E0F8A3E0F9A3E0FA59
:100E2500A3E0FBD31203BF4007D207D2027F012202
:060E3500C207C2027F00AB
:010E3B002294
:100434002002030205EF300309C20375F38075F34C
:10044400822230E902D20120ED030205EF53E8DFF6
:10045400120D68C004C005C006C007900096E4757C
:10046400F00112027EFEE5F07802C333CE33CED81B
:10047400F92416F58274003EF583D007D006D00522
:10048400D0041203F7900096E07004A3E0642060A7
:10049400030205EF900096F0A3F09000DC12040331
:1004A40000000000E49000E0F0A3F09000DCE0F82D
:1004B400A3E0F9A3E0FAA3E0FBC000C001C002C0BE
:1004C40003A3E0FEA3E07802C333CE33CED8F924ED
:1004D40016F58274003EF583E0FCA3E0FDA3E0FE84
:1004E400A3E0D003D002D001D0002BFFEA3EFEE906
:1004F4003DFDE83CFC9000DC1203F79000E1E004D1
:10050400F070069000E0E004F09000E0E07004A3D6
:10051400E064207096E47B20FAF9F89000DCE0FCBB
:10052400A3E0FDA3E0FEA3E0FF12031F90009C12D2
:1005340003F730051790009CE0FCA3E0FDA3E0FE68
:10054400A3E0FF120BEB90009C1203F7900008E06D
:10055400FCA3E0FDA3E0FEA3E0FF90009CE0F8A371
:10056400E0F9A3E0FAA3E0FBD31203BF500B900021
:10057400101204030000000022900008E0F8A3E039
:10058400F9A3E0FAA3E0FB90009CE0FCA3E0FDA348
:10059400E0FEA3E0C39BFFEE9AFEED99FDEC98FC10
:1005A400900098E0F8A3E0F9A3E0FAA3E0FB1202BC
:1005B40094C004C005C006900008E0F8A3E0F9A3C5
:1005C400E0FAA3E0FBA3E0FCA3E0FDA3E0FEA3E0CC
:1005D400C39BFBEE9AFAED99F9EC98F8D006D00596
:0B05E400D00412031F9000101203F758
:0105EF0022E9
:100F270075B280E4F5A975B283F5BE43BE80FFFEB6
:100F37000FBF00010EEF64C84E70F543BEC0E5BE9B
:0C0F470030E5FB75FF8075EF06E4F5A9AE
:010F5300227B
:0D10B10075A458E4F5A575E10175E2402233
:10000300EF600575F417800375F40743D101E4F538
:10001300FB75F71375C610F59B759A4075F380222F
:10109200E4F5C8F58E75CBF875CA0743C80443A8B2
:0210A20020220A
:10103D0075981053890F438920438E08758D9675C9
:07104D008B96D28ED2AC227B
:10107F00AD07120F271210B1121092AF0512000315
:03108F0002103D0F
:0D10BE003F065B4F666D7C077F6F80004032
:0E0D2400C10AC108C1094100CA004100DB023A
:10106A009000CB1204030000FFFF9000CF1204038C
:05107A0000000000224F
:1005F000200D0302078A200A030206D4900010E0AF
:10060000FCA3E0FDA3E0FEA3E0FF9000CF1203F700
:100610002004079000D5740A800820020D9000D5B0
:10062000740CF0A3F0A3F002071F9000CBA3A3E08B
:10063000FEA3E0FBAA06A3A3A3E0FEA3E0C39BFFE7
:10064000EE9AFE1210CB9000DBE0FDD3EF9D74809C
:10065000F86E98500302071F9000CFE0FCA3E0FD66
:10066000A3E0FEA3E0FF9000CB1203F7E47B0AFABD
:10067000F9F89000CBE0FCA3E0FDA3E0FEA3E0FFCF
:1006800012031F9000D5EBF0E47B0AFAF9F8900012
:10069000CBE0FCA3E0FDA3E0FEA3E0FF12031FE418
:1006A0007B0AFAF9F812031F9000D6EBF0E47B64A2
:1006B000FAF9F89000CBE0FCA3E0FDA3E0FEA3E094
:1006C000FF12031FE47B0AFAF9F812031F9000D708
:1006D000EBF0804B3008489000B5E0FF9000D4F07C
:1006E0009000D3E0C39FD394004034A3E09000D3A4
:1006F000F075F00A849000D5E5F0F09000D3E07535
:10070000F00A8475F00A849000D6E5F0F09000D3EA
:10071000E075F0648475F00A849000D7E5F0F0E4A9
:10072000F590D280D281D2879000CAE0C394025063
:1007300005E004F08005E49000CAF09000CAE024CF
:10074000D5300910F582E43400F583E09010BE93B3
:100750004480800CF582E43400F583E09010BE9371
:10076000F4F5909000CAE0FF7008C280D281D28771
:100770008016EFB40108D280C281D287800AEFB41C
:0B0780000206D280D281C287C20D2287
:100D32004200A200004100B5004100B1004100A7FD
:100D4200644200A403E84200B2EA604100B402C176
:090D52000D4100A1144100A6149A
:03002B00020B6164
:100B6100C0E0C083C082C0D0C2CF9000B4E06004B6
:100B710014F080089000B47402F0D20D9000A6E049
:100B8100600414F0800A9000A1E09000A6F0D20366
:100B91009000A7E0600414F0800E9000A77464F048
:100BA1009000B1E0600214F09000A4E07002A3E0B4
:100BB10060109000A5E024FFF09000A4E034FFF065
:100BC100801F9000A47403F0A374E8F09000B5E0D6
:100BD100600F9000EEE0B401089000B5E014F0B2AF
:0A0BE10009D0D0D082D083D0E032DA
:03002300020AD6F8
:100AD600C0E0C083C082C0D075D000C005C006C0CB
:100AE60007309861200C5E9000A2E0FEA3E0FFFDB7
:100AF60024A8F582E43400F583E599F0EF64014E0D
:100B0600702074A82DF582E43400F583E0FF900090
:100B1600C8E0FEEF6E600B9000A2E4F0A3F0C2986E
:100B2600802A9000A3E004F070069000A2E004F092
:100B3600C39000A3E094099000A2E094004006D27E
:100B46000CE4F0A3F0C298309902C299D007D006FF
:0B0B5600D005D0D0D082D083D0E03298
:020D5B00C10EC7
:100C74007F0112107F1210D79000C8EFF012106A93
:100C84009000D5740CF0A3F0A3F0E49000EEF01201
:100C940010A47F647E00120FEDD2049000081204A9
:100CA400030000000090000C1204030000000090F8
:100CB400009C1204030000000090001012040300C2
:100CC400000000C286D283D20AC208D2AF300E0F0F
:100CD40020040C1210A47F647E00120FEDD20412C3
:0D0CE40005F0120434120E80120EF980E0AB
:10102300C2AFEF1FAC0670011E4C600B0000000046
:0A103300000000000080EBD2AF22A5
:040FED00AB07AA069E
:100FF100900001D3E5829BE5839A500A7FE87E0346
:06100100121023A380ED94
:0110070022C6
:10100800C2AF8F999000B17402F0E59820E1069084
:0B10180000B1E070F55398FDD2AF224C
:0910D7002082037F34227F3322C2
:100EBE00C20FAD07C2AFC2837F077E00121023E4BC
:100ECE00FBED30E004D20F8002C20FEDC313FDA282
:100EDE000F92837F077E001210230BEBB408E2D231
:0A0EEE00837F147E00121023D2AFA0
:010EF80022D7
:040D5D00C10CC10BF9
:060994009000E71203F7DA
:10099A009000BF7421F09000C8E09000C0F0900071
:1009AA00C9E09000C1F09000E7E0FCA3A3A3E4FF34
:1009BA00FEFDEC78181203D09000C2EFF09000E729
:1009CA00A3E0FDA3A3E4FFFEE4FC78101203D09099
:1009DA0000C3EFF09000E7A3A3E0FEA3E4FFE4FD69
:1009EA00FC78081203D09000C4EFF09000E7E0FC16
:1009FA00A3E0FDA3E0FEA3E0FF9000C5EFF0A3741F
:100A0A003BF01210549000C7EFF0D20BD286C2AC62
:100A1A00E49000EBF09000EBE0FFC39409501774E8
:100A2A00BF2FF582E43400F583E0FF12100890002E
:0C0A3A00EBE004F080DFC20BC286D2ACFF
:010A4600228D
:10105400E4FFFE74BF2EF582E43400F583E06FFFF5
:051064000EEEB408EEE1
:011069002264
:0B0F54009000E7EBF0A3EAF0A3E9F047
:100F5F00E4FFFE9000E7E0FBA3E0FAA3E0F98E8246
:0D0F6F007583001202516FFF0EEEB408E60C
:010F7C002252
:0B078B009000DCE0FBA3E0FAA3E0F923
:0B0796009000E7EBF0A3EAF0A3E9F00D
:1007A100A3120403000000009000EAE0F8A3E0F9BE
:1007B100A3E0FAA3E0FBC000C001C002C0039000A7
:1007C100E7E0FBA3E0FAA3E0F9900003120251FF76
:1007D100E4FCFDFED003D002D001D000EB2FFFEEF0
:1007E1003AFEED39FDEC38FC9000EA1203F7900077
:1007F100E7E0FBA3E0FAA3E0F9900004120251FF45
:10080100E4FCFDFEC004C005C006C007FF0E900059
:10081100EAE0F8A3E0F9A3E0FAA3E0FB120294D026
:1008210003D002D001D000EF2BFFEE3AFEED39FDEF
:10083100EC38FC9000EA1203F79000E7E0FBA3E03C
:10084100FAA3E0F9900005120251FFE4FCFDFEC09D
:1008510004C005C006C007FF0E9000EAE0F8A3E05F
:10086100F9A3E0FAA3E0FB120294D003D002D00175
:10087100D000EF2BFFEE3AFEED39FDEC38FC900095
:10088100EA1203F79000E7E0FBA3E0FAA3E0F99096
:100891000006120251FFE4FCFDFEC004C005C006C3
:1008A100C007FF0E9000EAE0F8A3E0F9A3E0FAA385
:1008B100E0FB120294D003D002D001D000EF2BFF55
:1008C100EE3AFEED39FDEC38FC9000EA1203F790A8
:0D08D10000EAE0FCA3E0FDA3E0FEA3E0FFD1
:0108DE0022F7
:0B002E009000DCEBF0A3EAF0A3E9F087
:10003900A3120403000000009000E312040300006F
:1000490000009000DCE0FBA3E0FAA3E0F9900001D6
:10005900120251FF9000C8E06F60037F0022120F67
:10006900549000DCE0FBA3E0FAA3E0F99000081249
:1000790002516F60037F0222900002120251900028
:10008900C9F024CFB40D00400302024E9000A375BD
:10009900F003A4C58325F0C583730200CD0200EDEA
:1000A9000200D20201020200DC0200D702024E0263
:1000B900024E02019202012E0200CA02024E0202FF
:1000C9001302017A900010800D90009C8008900026
:1000D90008800390000CE0FCA3E0FDA3E0FEA3E090
:1000E900FF02024B1208DFEF60047F0180027F02EA
:1000F9007E007D007C0002024B20060B7F037E0000
:100109007D007C0002024B12078B9000981203F7C6
:10011900120DD5EF60047F0180027F027E007D0011
:100129007C0002024B12078B9000DF1203F7E4FFF9
:10013900FEFDFC9000DFE0F8A3E0F9A3E0FAA3E0FC
:10014900FBD31203BF4035E4FFFE7D10FC9000DFB6
:10015900E0F8A3A3A3E01203BF50219000DFE0FC65
:10016900A3E0FDA3E0FEA3E0FF9000081203F7D28D
:10017900067F017E007D007C0002024BC2067F02E1
:100189007E007D007C0002024B12078B9000E31277
:1001990003F720060FC202C2077F037E007D007CA1
:1001A9000002024B900008E0FCA3E0FDA3E0FEA3DF
:1001B900E0FF9000E3E0F8A3E0F9A3E0FAA3E0FB95
:1001C900D31203BF4036E4FFFE7D10FC9000E3E04C
:1001D900F8A3A3A3E01203BF50229000E3E0FCA31D
:1001E900E0FDA3E0FEA3E0FF90000C1203F7D202AA
:1001F900D2077F017E007D007C008046C202C207D3
:100209007F027E007D007C0080389000DCE0FBA34B
:10021900E0FAA3E0F9900006120251FFD3940040DE
:10022900179000EEE070119000B5EFF0D2107F0149
:100239007E007D007C00800AC2107F027E007D0066
:070249007C001209947F0103
:01025000228B
:100EF900300C2AE4FF74A82FF582E43400F583E06E
:100F0900FE74B62FF582E43400F583EEF00FEFB4EA
:0D0F190009E37B017A0079B612002EC20CAC
:010F260022A8
:03000000020A47AA
:0F0A470053D9BF787FE4F6D8FD758122020A915A
:060D6100C1104100EE008C
:100E80009000EEE0FF700E30100BC283D208C20A51
:100E9000C21004F022EFB401139000B5E0700DD23F
:100EA00083C208D20A9000EE7402F0229000EEE0B5
:0E0EB000B4020A9000B5E070049000EEF0224B
:100A5600020C74E493A3F8E493A34003F68001F236
:100A660008DFF48029E493A3F85407240CC8C333A1
:100A7600C4540F4420C8834004F456800146F6DF70
:100A8600E4800B0102040810204080900CF1E47E03
:100A9600019360BCA3FF543F30E509541FFEE49365
:100AA600A360010ECF54C025E060A840B8E493A32C
:100AB600FAE493A3F8E493A3C8C582C8CAC583CA57
:100AC600F0A3C8C582C8CAC583CADFE9DEE780BE0F
:010D6700008B
:10025100BB010CE58229F582E5833AF583E0225062
:1002610006E92582F8E622BBFE06E92582F8E222AC
:0D027100E58229F582E5833AF583E49322C6
:10027E00A3F8E0C5F025F0F0E58215827002158333
:06028E00E0C838F0E82290
:10029400E88FF0A4CC8BF0A42CFCE98EF0A42CFC09
:1002A4008AF0EDA42CFCEA8EF0A4CDA8F08BF0A487
:1002B4002DCC3825F0FDE98FF0A42CCD35F0FCEBE6
:1002C4008EF0A4FEA9F0EB8FF0A4CFC5F02ECD39AB
:0F02D400FEE43CFCEAA42DCE35F0FDE43CFC2218
:1002E30075F008758200EF2FFFEE33FECD33CDCCD2
:1002F30033CCC58233C5829BED9AEC99E582984055
:100303000CF582EE9BFEED9AFDEC99FC0FD5F0D631
:10031300E4CEFBE4CDFAE4CCF9A88222B800C1B95B
:100323000059BA002DEC8BF084CFCECDFCE5F0CB99
:10033300F97818EF2FFFEE33FEED33FDEC33FCEBD2
:1003430033FB10D703994004EB99FB0FD8E5E4F98D
:10035300FA227818EF2FFFEE33FEED33FDEC33FC7A
:10036300C933C910D7059BE99A4007EC9BFCE99A6E
:10037300F90FD8E0E4C9FAE4CCFB2275F010EF2FB3
:10038300FFEE33FEED33FDCC33CCC833C810D707B3
:100393009BEC9AE899400AED9BFDEC9AFCE899F8EE
:0E03A3000FD5F0DAE4CDFBE4CCFAE4C8F92281
:100E3C00C2D5E830E70FB2D5E4C39BFBE49AFAE4E1
:100E4C0099F9E498F8EC30E717B2D5120E72120348
:100E5C001FE4C39BFBE49AFAE499F9E498F8800345
:100E6C0012031F30D50DE4C39FFFE49EFEE49DFDED
:040E7C00E49CFC22D4
:0E03B100C3E49FFFE49EFEE49DFDE49CFC225D
:1003BF00EB9FF5F0EA9E42F0E99D42F0E89C45F094
:0103CF00220B
:1003D000E8600FECC313FCED13FDEE13FEEF13FF0B
:0303E000D8F1222F
:1003E300E86010ECA2E713FCED13FDEE13FEEF1330
:0403F300FFD8F0221D
:0C03F700ECF0A3EDF0A3EEF0A3EFF02279
:10040300A8828583F0D083D08212041A12041A12B0
:10041300041A12041AE473E493A3C583C5F0C583D5
:10042300C8C582C8F0A3C583C5F0C583C8C582C843
:0104330022A6
:0C10CB00EE30E707C3E49FFFE49EFE2226
:00000001FF
