:100C2F0041001400420015000042009900004400EA
:100C3F00100000000042001701F44100A308440017
:070C4F000000000000C1825B
:100B6100900007E5C3F0900006E5C4F0900005E5AC
:100B7100C5F0E4900004F0A3E0FDED5480FDED909C
:100B810000046024E0FCA3E0FDA3E0FEA3E0FBAAD7
:100B910006A905A804C3E49BFFE49EFEE49DFD7441
:100BA100019CFC12018E800BE0FCA3E0FDA3E0FEA2
:100BB100A3E0FF9000EF1201EA9000EFE0FCA3E058
:0C0BC100FDA3E0FEA3E0FF78041201D6C3
:010BCD002205
:100DC400900007E5C3F0900006E5C4F0900005E547
:100DD400C5F0E4900004F0E0FCA3E0FDA3E0FEA372
:080DE400E0FF78041201C322B4
:060A5F009000F31201EA11
:100A65003002189000F3E0FCA3E0FDA3E0FEA3E054
:100A7500FF9000001201EAC2028059900000E0F8E0
:100A8500A3E0F9A3E0FAA3E0FBC000C001C002C0E7
:100A9500039000F3E0FCA3E0FDA3E0FEA3E0C39B0D
:100AA500FFEE9AFEED99FDEC98FCC0079000A3E0DF
:100AB500FBE4FAF9F8D007120C88D003D002D00174
:100AC500D000EB2FFFEA3EFEE93DFDE83CFC90003F
:100AD500001201EA900000E0FCA3E0FDA3E0FEA304
:020AE500E0FF30
:010AE70022EC
:0D0EFA0075F38075F38430EDFD53E8DF22C1
:0D0F070075F38075F38530EDFD53E8DF22B2
:100DEC0075F38075F38630EDFD53E8DF900007E571
:100DFC00BAF0900006E5BBF0900005E5BCF0E4907D
:040E0C000004F022CC
:100E100075F38075F38730EDFD53E8DF900007E54B
:100E2000ABF0900006E5ACF0900005E5ADF0E49085
:040E30000004F022A8
:1009410075F38075F38230EDFD53E8DF900007E524
:10095100C3F0900006E5C4F0900005E5C5F0E49011
:100961000004F0A3E0FDED5480FDED90000460244F
:10097100E0FCA3E0FDA3E0FEA3E0FBAA06A905A815
:1009810004C3E49BFFE49EFEE49DFD74019CFC1204
:10099100018E800BE0FCA3E0FDA3E0FEA3E0FF904D
:1009A10000F71201EA9000F7E0FCA3E0FDA3E0FEEE
:1009B100A3E0FF78041201D69000F71201EA90003B
:1009C100F7E0FCA3E0FDA3E0FEA3E0FF9000080236
:0209D10001EA39
:100D070075F38075F38230EDFD53E8DF900007E55A
:100D1700C3F0900006E5C4F0900005E5C5F0E49047
:100D27000004F0E0FCA3E0FDA3E0FEA3E0FF7804ED
:090D37001201C390000C0201EA54
:10022700900014E070030203FB900015E07002A336
:10023700E0600EE4900015F0A3F075F38075F3828B
:100247002220ED030203FB53E8DF120B61C004C059
:1002570005C006C007900099E475F00112005BFE27
:10026700E5F07802C333CE33CED8F92419F582747A
:10027700003EF583D007D006D005D0041201EA90DE
:100287000099E07004A3E0642060030203FB900080
:1002970099F0A3F09000E41201F600000000E4904A
:1002A70000E8F0A3F09000E4E0F8A3E0F9A3E0FA97
:1002B700A3E0FBC000C001C002C003A3E0FEA3E0AF
:1002C7007802C333CE33CED8F92419F58274003EB1
:1002D700F583E0FCA3E0FDA3E0FEA3E0D003D0029A
:1002E700D001D0002BFFEA3EFEE93DFDE83CFC9043
:1002F70000E41201EA9000E9E004F070069000E8DB
:10030700E004F09000E8E07004A3E064207096E455
:100317007B20FAF9F89000E4E0FCA3E0FDA3E0FEFF
:10032700A3E0FF1200FC90009F1201EA90009FE0FB
:10033700FCA3E0FDA3E0FEA3E0FF120A5F90009F8D
:100347001201EA900008E0FCA3E0FDA3E0FEA3E0B1
:10035700FF90009FE0F8A3E0F9A3E0FAA3E0FBD346
:100367001201B2500C9000101201F600000000803C
:100377006F900008E0F8A3E0F9A3E0FAA3E0FB9090
:10038700009FE0FCA3E0FDA3E0FEA3E0C39BFBEE20
:100397009AFAED99F9EC98F8900017E0FEA3E0FFC0
:1003A700E4FCFD120071C004C005C006900008E01F
:1003B700F8A3E0F9A3E0FAA3E0FBA3E0FCA3E0FDC8
:1003C700A3E0FEA3E0C39BFBEE9AFAED99F9EC9844
:1003D700F8D006D005D0041200FC9000101201EAF4
:1003E700900010E0FCA3E0FDA3E0FEA3E0FF900077
:0403F700D21201EA33
:0103FB0022DF
:100D6E0075B280E4F5A975B283F5BE43BE80FFFE71
:100D7E000FBF00010EEF64C84E70F543BEC0E5BE56
:0C0D8E0030E5FB75FF8075EF06E4F5A969
:010D9A002236
:0400260053D9BF22C9
:0D0F140075A458E4F5A575E10175E24022D1
:10000300EF600575F417800375F40743D101E4F538
:10001300FB75F71375C610759A14F59B75F380225B
:100EE800E4F5C8F58E75CBF875CA0743C80443A85E
:020EF8002022B6
:1003FC009000FB1201EA7598109000FBE0F8A3E066
:10040C00F9A3E0FAA3E0FB7F407EAE7DEB7C021209
:10041C000C88E47B02FAF9F8120C88E4FB7A01F9F7
:10042C00F8120C88E47B01FAF9F8D312019C4030E5
:10043C009000FBE0F8A3E0F9A3E0FAA3E0FB7F4017
:10044C007EAE7DEB7C02120C88E47B02FAF9F8128A
:10045C000C8812018E8F8D538EF4438E0802056822
:10046C009000FBE0F8A3E0F9A3E0FAA3E0FB7F40E7
:10047C007EAE7DEB7C02120C88E47B02FAF9F8125A
:10048C000C88E4FB7A01F9F8120C88E47B04FAF985
:10049C00F8D312019C40399000FBE0F8A3E0F9A3DB
:1004AC00E0FAA3E0FB7F407EAE7DEB7C02120C8871
:1004BC00E47B02FAF9F8120C88E47B04FAF9F812DE
:1004CC000C8812018E8F8D538EF4438E01020568B9
:1004DC009000FBE0F8A3E0F9A3E0FAA3E0FB7F4077
:1004EC007EAE7DEB7C02120C88E47B02FAF9F812EA
:1004FC000C88E4FB7A01F9F8120C88E47B0CFAF90D
:10050C00F8D312019C9000FBE0F8A3E0F9A3E0FA09
:10051C00A3E0FB7F407EAE7DEB7C02401F120C887B
:10052C00E47B02FAF9F8120C88E47B0CFAF9F81265
:10053C000C8812018E8F8D538EF48020120C88E45F
:10054C007B02FAF9F8120C88E47B30FAF9F8120CF9
:10055C008812018E8F8D538EF4438E02858D8B53B2
:0A056C00890F438920D28ED2AC2201
:100E5600AD07120D6E120F14120EE8AF0512000345
:0B0E66007F007EC27D017C000203FCC7
:0D0F21003F065B4F666D7C077F6F800040D0
:080C56004100CD004100DC0269
:100ED3009000CE1201F60000FFFF9000D21201F63F
:050EE3000000000022E8
:1006CA002003030207CE9000CEA3A3E0FEA3E0FB23
:1006DA00AA06A3A3A3E0FEA3E0C39BFFEE9AFE1221
:1006EA000F2E9000DCE0FDD3EF9D7480F86E9840E9
:1006FA007A9000D2E0FCA3E0FDA3E0FEA3E0FF9025
:10070A0000CE1201EAE47B0AFAF9F89000CEE0FC86
:10071A00A3E0FDA3E0FEA3E0FF1200FC9000D6EBED
:10072A00F0E47B0AFAF9F89000CEE0FCA3E0FDA31E
:10073A00E0FEA3E0FF1200FCE47B0AFAF9F81200DB
:10074A00FC9000D7EBF0E47B64FAF9F89000CEE075
:10075A00FCA3E0FDA3E0FEA3E0FF1200FCE47B0A99
:10076A00FAF9F81200FC9000D8EBF0E4F590D28088
:10077A00D281D2879000CDE0C394025005E004F004
:10078A008005E49000CDF09000CDE0FF24D6F582FC
:10079A00E43400F583E0900F2193F4F590EF7008AC
:1007AA00C280D281D287801A9000CDE0FFB40108BE
:1007BA00D280C281D287800AEFB40206D280D28167
:0507CA00C287C20322FA
:100C5E004200A500004100B5004100AA644200A771
:100C6E0003E84200B6EA604100B802C1034100A4A5
:050C7E000A4100A90A73
:03002B00020AE8DE
:100AE800C0E0C083C082C0D0C2CF9000AAE060043A
:100AF80014F0800E9000AA7464F09000B5E06002D3
:100B080014F09000A7E07002A3E060109000A8E045
:100B180024FFF09000A7E034FFF0800A9000A7744B
:100B280003F0A374E8F09000B8E0600414F08008C3
:100B38009000B87402F0D2039000A9E0600414F0A9
:100B4800800E9000A4E09000A9F09000157401F0C8
:090B5800D0D0D082D083D0E0326D
:03002300020BCEFF
:100BCE00C0E0C083C082C0D0309846200143900060
:100BDE00A5A3E024ABF582E43400F583E599F0900B
:100BEE0000A6E004F070069000A5E004F09000A5C9
:100BFE00E07004A3E064097002D2019000A5E4F055
:100C0E00A3F0D39409E4940040079000A5E4F0A368
:100C1E00F0C298309902C299D0D0D082D083D0E061
:010C2E003293
:100E34001200267F01120E56120F3A9000CBEFF0EB
:100E4400120ED3D2AFD283B2837F887E13120E7177
:020E540080F527
:100E8C00C2AFEF1FAC0670011E4C600B00000000DF
:0A0E9C00000000000080EBD2AF223E
:040E7100AB07AA061B
:100E7500900001D3E5829BE5839A500A7FE87E03C3
:060E8500120E8CA380EDAB
:010E8B002244
:100EA6008F999000B57402F0E59820E1069000B5A0
:070EB600E070F55398FD22E6
:090F3A002082037F34227F332260
:100CCC00C204AD07C2AFC2837F077E00120E8CE454
:100CDC00FBED30E004D2048002C204EDC313FDA28C
:100CEC000492837F077E00120E8C0BEBB408E2D2C9
:0A0CFC00837F147E00120E8CD2AF2D
:010D060022CA
:040C8300C101C100EA
:060896009000EA1201EAE5
:10089C009000C27421F09000CBE09000C3F0900067
:1008AC00CCE09000C4F09000EAE0FCA3A3A3E4FF2A
:1008BC00FEFDEC78181201C39000C5EFF09000EA31
:1008CC00A3E0FDA3A3E4FFFEE4FC78101201C390A7
:1008DC0000C6EFF09000EAA3A3E0FEA3E4FFE4FD62
:1008EC00FC78081201C39000C7EFF09000EAE0FC1E
:1008FC00A3E0FDA3E0FEA3E0FF9000C8EFF0A3741B
:10090C003BF0A374BDF0D200C2ACE49000EEF090CA
:10091C0000EEE0FFC39409501774C22FF582E43443
:10092C0000F583E0FF120EA69000EEE004F080DFED
:04093C00C200D2AC77
:010940002294
:100EBD00E4FFFE74C22EF582E43400F583E06FFF8B
:050ECD000EEEB408EE7A
:010ED20022FD
:0B0D9B009000FFEBF0A3EAF0A3E9F0EA
:100DA600E4FFFE9000FFE0FBA3E0FAA3E0F98E82E9
:0D0DB60075830012002E6FFF0EEEB408E6EC
:010DC300220D
:0B057600900102E0FBA3E0FAA3E0F913
:0B0581009000DDEBF0A3EAF0A3E9F02E
:10058C00A31201F6000000009000E0E0F8A3E0F9EF
:10059C00A3E0FAA3E0FBC000C001C002C0039000BE
:1005AC00DDE0FBA3E0FAA3E0F990000312002EFFBC
:1005BC00E4FCFDFED003D002D001D000EB2FFFEE07
:1005CC003AFEED39FDEC38FC9000E01201EA9000A7
:1005DC00DDE0FBA3E0FAA3E0F990000412002EFF8B
:1005EC00E4FCFDFEC004C005C006C007FF0E900071
:1005FC00E0E0F8A3E0F9A3E0FAA3E0FB120071D06D
:10060C0003D002D001D000EF2BFFEE3AFEED39FD06
:10061C00EC38FC9000E01201EA9000DDE0FBA3E076
:10062C00FAA3E0F990000512002EFFE4FCFDFEC0D9
:10063C0004C005C006C007FF0E9000E0E0F8A3E080
:10064C00F9A3E0FAA3E0FB120071D003D002D001B1
:10065C00D000EF2BFFEE3AFEED39FDEC38FC9000AC
:10066C00E01201EA9000DDE0FBA3E0FAA3E0F990D0
:10067C00000612002EFFE4FCFDFEC004C005C006FF
:10068C00C007FF0E9000E0E0F8A3E0F9A3E0FAA3A6
:10069C00E0FB120071D003D002D001D000EF2BFF91
:1006AC00EE3AFEED39FDEC38FC9000E01201EA90D8
:0D06BC0000E0E0FCA3E0FDA3E0FEA3E0FFF2
:0106C900220E
:1007CF00900102EBF0A3EAF0A3E9F0900102E0FB45
:1007DF00A3E0FAA3E0F990000112002EFF9000CBE6
:1007EF00E06F60037F0022120D9B900102E0FBA3DC
:1007FF00E0FAA3E0F990000812002E6F60037F0269
:10080F002290000212002E9000CCF024CFB40A00E8
:10081F00507290082F75F003A4C58325F0C583731C
:10082F0002084D02086F02085202087402085702AC
:10083F00085C02089302089302088A02088290005B
:10084F0010800D90009F8008900008800390000C8E
:10085F00E0FCA3E0FDA3E0FEA3E0FF1208968024D6
:10086F00120941801F12057690009B1201EA120DAA
:10087F000780111205769000088006120576900009
:07088F000C1201EA7F0122B7
:100D400030012AE4FF74AB2FF582E43400F583E030
:100D5000FE74B92FF582E43400F583EEF00FEFB4A2
:0D0D600009E37B017A0079B91207CFC201C7
:010D6D002263
:030000000209D31F
:0C09D300787FE4F6D8FD758120020A1A36
:1009DF00020E34E493A3F8E493A34003F68001F2EC
:1009EF0008DFF48029E493A3F85407240CC8C33319
:1009FF00C4540F4420C8834004F456800146F6DFE8
:100A0F00E4800B0102040810204080900C2FE47E3C
:100A1F00019360BCA3FF543F30E509541FFEE493DC
:100A2F00A360010ECF54C025E060A840B8E493A3A3
:100A3F00FAE493A3F8E493A3C8C582C8CAC583CACE
:100A4F00F0A3C8C582C8CAC583CADFE9DEE780BE86
:010C8700006C
:10002E00BB010CE58229F582E5833AF583E0225087
:10003E0006E92582F8E622BBFE06E92582F8E222D1
:0D004E00E58229F582E5833AF583E49322EB
:10005B00A3F8E0C5F025F0F0E58215827002158358
:06006B00E0C838F0E822B5
:10007100E88FF0A4CC8BF0A42CFCE98EF0A42CFC2E
:100081008AF0EDA42CFCEA8EF0A4CDA8F08BF0A4AC
:100091002DCC3825F0FDE98FF0A42CCD35F0FCEB0B
:1000A1008EF0A4FEA9F0EB8FF0A4CFC5F02ECD39D0
:0F00B100FEE43CFCEAA42DCE35F0FDE43CFC223D
:1000C00075F008758200EF2FFFEE33FECD33CDCCF7
:1000D00033CCC58233C5829BED9AEC99E58298407A
:1000E0000CF582EE9BFEED9AFDEC99FC0FD5F0D657
:1000F000E4CEFBE4CDFAE4CCF9A88222B800C1B981
:100100000059BA002DEC8BF084CFCECDFCE5F0CBBE
:10011000F97818EF2FFFEE33FEED33FDEC33FCEBF7
:1001200033FB10D703994004EB99FB0FD8E5E4F9B2
:10013000FA227818EF2FFFEE33FEED33FDEC33FC9F
:10014000C933C910D7059BE99A4007EC9BFCE99A93
:10015000F90FD8E0E4C9FAE4CCFB2275F010EF2FD8
:10016000FFEE33FEED33FDCC33CCC833C810D707D8
:100170009BEC9AE899400AED9BFDEC9AFCE899F813
:0E0180000FD5F0DAE4CDFBE4CCFAE4C8F922A6
:100C8800C2D5E830E70FB2D5E4C39BFBE49AFAE497
:100C980099F9E498F8EC30E717B2D5120CBE1200B7
:100CA800FCE4C39BFBE49AFAE499F9E498F880031E
:100CB8001200FC30D50DE4C39FFFE49EFEE49DFDC9
:040CC800E49CFC228A
:0E018E00C3E49FFFE49EFEE49DFDE49CFC2282
:10019C00EB9FF5F0EA9E42F0E99D42F0EC6480C8DA
:0601AC0064809845F0227A
:1001B200EB9FF5F0EA9E42F0E99D42F0E89C45F0A3
:0101C200221A
:1001C300E8600FECC313FCED13FDEE13FEEF13FF1A
:0301D300D8F1223E
:1001D600E86010ECA2E713FCED13FDEE13FEEF133F
:0401E600FFD8F0222C
:0C01EA00ECF0A3EDF0A3EEF0A3EFF02288
:1001F600A8828583F0D083D08212020D12020D12DE
:10020600020D12020DE473E493A3C583C5F0C58302
:10021600C8C582C8F0A3C583C5F0C583C8C582C852
:0102260022B5
:0C0F2E00EE30E707C3E49FFFE49EFE22C4
:00000001FF
